S01600002E2F44656275672F5254532D4C61622E73313936
S3152000000000BFDFF814D003F034FF05F009FF03F03A
S3152000001042BFFEE700BF000000C0012080B582B0CD
S3152000002000AF78607B68604A934208D101210120A5
S3152000003002F0FEFA0021012002F0FAFAAFE07B6816
S31520000040B3F1804F08D10121012002F0D1FA00211D
S31520000050012002F0CDFAA2E07B68544A934208D1EF
S315200000600121022002F0C4FA0021022002F0C0FA87
S3152000007095E07B684E4A934208D10121042002F084
S31520000080B7FA0021042002F0B3FA88E07B68494AD7
S31520000090934208D10121082002F0AAFA0021082063
S315200000A002F0A6FA7BE07B68434A934208D10121FD
S315200000B0102002F09DFA0021102002F099FA6EE03D
S315200000C07B683E4A934208D10121202002F090FA13
S315200000D00021202002F08CFA61E07B68384A9342A6
S315200000E008D10121022002F0A3FA0021022002F009
S315200000F09FFA54E07B68334A93420AD101214FF498
S31520000100803002F095FA00214FF4803002F090FA08
S3152000011045E07B682C4A93420AD101214FF40030F6
S3152000012002F086FA00214FF4003002F081FA36E020
S315200001307B68264A93420AD101214FF4802002F09F
S3152000014077FA00214FF4802002F072FA27E07B68CC
S315200001501F4A934208D10121402002F049FA00218A
S31520000160402002F045FA1AE07B681A4A934208D1E9
S315200001700121802002F03CFA0021802002F038FA8A
S315200001800DE07B68144A934209D101214FF4807017
S3152000019002F02EFA00214FF4807002F029FA00BFF7
S315200001A00837BD4680BD00BF000001400004004066
S315200001B000080040000C00400010004000140040E1
S315200001C00004014000400140004401400048014035
S315200001D000180040001C00400020004080B485B07C
S315200001E000AF786039600023FB817B681B88FB8128
S315200001F07B68294A934213D07B68284A93420FD0C2
S315200002007B68B3F1804F0BD07B68254A934207D099
S315200002107B68244A934203D07B68234A934208D1C1
S31520000220FB8923F07003FB813B685A88FB891343C3
S31520000230FB817B681D4A93420CD07B681C4A934203
S3152000024008D0FB8923F44073FB813B681A89FB891C
S315200002501343FB817B68FA891A803B685A687B685E
S31520000260DA623B681A887B681A857B680A4A934259
S3152000027003D07B68094A934204D13B689B7A9AB2A1
S315200002807B681A867B6801229A8200BF1437BD4696
S315200002905DF8047B704700BF000001400004014068
S315200002A00004004000080040000C00400010004000
S315200002B00014004080B483B000AF78607B684FF0B4
S315200002C0FF325A607B6800221A807B6800221A81DE
S315200002D07B6800225A807B6800229A7200BF0C3706
S315200002E0BD465DF8047B704780B483B000AF78606C
S315200002F00B467B8013463B807B687A881A857B6811
S315200003003A889A8200BF0C37BD465DF8047B704759
S3152000031080B485B000AF78600B467B800023FB81DC
S315200003207B681B88FB81FB8923F07003FB81FA899C
S315200003307B881343FB817B68FA891A8000BF1437B8
S31520000340BD465DF8047B704780B483B000AF78600B
S3152000035039607B683A685A6200BF0C37BD465DF843
S31520000360047B704780B483B000AF786039607B68C7
S315200003703A68DA6200BF0C37BD465DF8047B7047E9
S3152000038080B483B000AF78607B685B6A18460C3710
S31520000390BD465DF8047B704780B483B000AF7860BB
S315200003A07B681B8D9BB218460C37BD465DF8047BD7
S315200003B0704780B483B000AF78600B46FB70FB7843
S315200003C0002B08D07B681B889BB243F002039AB2AD
S315200003D07B681A8007E07B681B889BB223F00203A8
S315200003E09AB27B681A8000BF0C37BD465DF8047B45
S315200003F0704780B483B000AF78600B467B807B88E3
S31520000400002B08D07B681B889BB243F004039AB26A
S315200004107B681A8007E07B681B889BB223F0040365
S315200004209AB27B681A8000BF0C37BD465DF8047B04
S31520000430704780B483B000AF78600B46FB70FB78C2
S31520000440002B08D07B681B889BB243F080039AB2AE
S315200004507B681A8007E07B681B889BB223F08003A9
S315200004609AB27B681A8000BF0C37BD465DF8047BC4
S31520000470704780B483B000AF78600B467B807B6882
S315200004801B889BB223F008039AB27B681A807B688C
S315200004901B889AB27B8813439AB27B681A8000BF66
S315200004A00C37BD465DF8047B704780B483B000AF3F
S315200004B078600B467B807B681B889BB223F4407355
S315200004C09AB27B681A807B681B889AB27B88134312
S315200004D09AB27B681A8000BF0C37BD465DF8047B54
S315200004E0704780B483B000AF78600B46FB70FB7812
S315200004F0002B08D07B681B889BB243F001039AB27D
S315200005007B681A8007E07B681B889BB223F0010377
S315200005109AB27B681A8000BF0C37BD465DF8047B13
S31520000520704780B485B000AF7860396000237B8146
S315200005300023FB810023BB817B681B8C9BB223F0AD
S3152000054001039AB27B681A847B681B8CFB817B68CB
S315200005509B88BB817B681B8B7B817B8923F0700307
S315200005607B817B8923F003037B813B681A887B8907
S3152000057013437B81FB8923F00203FB813B689A8925
S31520000580FB891343FB813B685A88FB891343FB8114
S315200005907B681F4A934203D07B681E4A934223D12D
S315200005A0FB8923F00803FB813B68DA89FB89134327
S315200005B0FB81FB8923F00403FB813B689A88FB8936
S315200005C01343FB81BB8923F48073BB81BB8923F44E
S315200005D00073BB813B681A8ABB891343BB813B6886
S315200005E05A8ABB891343BB817B68BA899A807B6808
S315200005F07A891A833B689A687B685A637B68FA898A
S315200006001A8400BF1437BD465DF8047B704700BFCF
S31520000610000001400004014080B485B000AF78603E
S31520000620396000237B810023FB810023BB817B680B
S315200006301B8C9BB223F010039AB27B681A847B68CA
S315200006401B8CFB817B689B88BB817B681B8B7B819A
S315200006507B8923F4E0437B817B8923F440737B8170
S315200006603B681B881B029AB27B8913437B81FB89DB
S3152000067023F02003FB813B689B891B019AB2FB89EF
S315200006801343FB813B685B881B019AB2FB891343AA
S31520000690FB817B68224A934203D07B68214A93429E
S315200006A02BD1FB8923F08003FB813B68DB891B016F
S315200006B09AB2FB891343FB81FB8923F04003FB811C
S315200006C03B689B881B019AB2FB891343FB81BB893C
S315200006D023F48063BB81BB8923F40063BB813B6821
S315200006E01B8A9B009AB2BB891343BB813B685B8AFA
S315200006F09B009AB2BB891343BB817B68BA899A80D7
S315200007007B687A891A833B689A687B689A637B68D8
S31520000710FA891A8400BF1437BD465DF8047B7047FA
S31520000720000001400004014080B485B000AF78602D
S31520000730396000237B810023FB810023BB817B68FA
S315200007401B8C9BB223F480739AB27B681A847B68D5
S315200007501B8CFB817B689B88BB817B689B8B7B8109
S315200007607B8923F070037B817B8923F003037B81C4
S315200007703B681A887B8913437B81FB8923F40073AA
S31520000780FB813B689B891B029AB2FB891343FB8141
S315200007903B685B881B029AB2FB891343FB817B680B
S315200007A0224A934203D07B68214A93422BD1FB896C
S315200007B023F40063FB813B68DB891B029AB2FB8929
S315200007C01343FB81FB8923F48063FB813B689B8871
S315200007D01B029AB2FB891343FB81BB8923F4805306
S315200007E0BB81BB8923F40053BB813B681B8A1B0159
S315200007F09AB2BB891343BB813B685B8A1B019AB2C1
S31520000800BB891343BB817B68BA899A807B687A89C6
S315200008109A833B689A687B68DA637B68FA891A84CC
S3152000082000BF1437BD465DF8047B704700000140C9
S315200008300004014080B485B000AF786039600023A1
S31520000840BB8100237B810023FB817B681B8C9BB2B1
S3152000085023F480539AB27B681A847B681B8C7B8135
S315200008607B689B88FB817B689B8BBB81BB8923F440
S31520000870E043BB81BB8923F44073BB813B681B8863
S315200008801B029AB2BB891343BB817B8923F4005395
S315200008907B813B689B891B039AB27B8913437B81AF
S315200008A03B685B881B039AB27B8913437B817B68F9
S315200008B0124A934203D07B68114A93420AD1FB899C
S315200008C023F48043FB813B681B8A9B019AB2FB89F8
S315200008D01343FB817B68FA899A807B68BA899A835D
S315200008E03B689A687B681A647B687A891A8400BF99
S315200008F01437BD465DF8047B704700BF00000140F9
S315200009000004014080B483B000AF78607B68002289
S315200009101A807B6800225A807B6800229A807B6836
S3152000092000229A607B6800229A817B680022DA8105
S315200009307B6800221A827B6800225A8200BF0C370D
S31520000940BD465DF8047B704780B485B000AF786003
S315200009500B467B8013463B800023FB6000237B8174
S315200009607B68FB60FB681833FB607B88012202FAF8
S3152000097003F37B817B681B8C9AB27B89DB439BB21A
S3152000098013409AB27B681A847B88002B02D07B881E
S31520000990082B14D17B885B089BB21A46FB6813444C
S315200009A0FB60FB681968FA684FF68F730B4013607B
S315200009B0FB6819683A88FB680A431A6019E07B8845
S315200009C0043B9BB25B089BB21A46FB681344FB6050
S315200009D0FB681968FA6848F6FF730B401360FB68DA
S315200009E01A683B881B029BB21946FB680A431A60A9
S315200009F000BF00BF1437BD465DF8047B704780B446
S31520000A0083B000AF786039607B683A685A6300BF6C
S31520000A100C37BD465DF8047B704780B483B000AFC9
S31520000A20786039607B683A689A6300BF0C37BD46A8
S31520000A305DF8047B704780B483B000AF786039607E
S31520000A407B683A68DA6300BF0C37BD465DF8047BE5
S31520000A50704780B483B000AF786039607B683A68AD
S31520000A601A6400BF0C37BD465DF8047B704780B41E
S31520000A7085B000AF78600B467B800023FB817B68C6
S31520000A801B8BFB81FB8923F07003FB81FA897B8812
S31520000A901343FB817B68FA891A8300BF1437BD464E
S31520000AA05DF8047B704780B485B000AF78600B4654
S31520000AB07B800023FB817B681B8BFB81FB8923F4D6
S31520000AC0E043FB817B881B029AB2FB891343FB819F
S31520000AD07B68FA891A8300BF1437BD465DF8047B0C
S31520000AE0704780B485B000AF78600B467B800023CA
S31520000AF0FB817B689B8BFB81FB8923F07003FB8149
S31520000B00FA897B881343FB817B68FA899A8300BF25
S31520000B101437BD465DF8047B704780B485B000AFBE
S31520000B2078600B467B800023FB817B689B8BFB8157
S31520000B30FB8923F4E043FB817B881B029AB2FB8965
S31520000B401343FB817B68FA899A8300BF1437BD461D
S31520000B505DF8047B704780B485B000AF78600B46A3
S31520000B607B800023FB817B681B8BFB81FB8923F029
S31520000B700803FB81FA897B881343FB817B68FA890A
S31520000B801A8300BF1437BD465DF8047B704780B4D6
S31520000B9085B000AF78600B467B800023FB817B68A5
S31520000BA01B8BFB81FB8923F40063FB817B881B0263
S31520000BB09AB2FB891343FB817B68FA891A8300BFAB
S31520000BC01437BD465DF8047B704780B485B000AF0E
S31520000BD078600B467B800023FB817B689B8BFB81A7
S31520000BE0FB8923F00803FB81FA897B881343FB8169
S31520000BF07B68FA899A8300BF1437BD465DF8047B6B
S31520000C00704780B485B000AF78600B467B800023A8
S31520000C10FB817B689B8BFB81FB8923F40063FB8133
S31520000C207B881B029AB2FB891343FB817B68FA8976
S31520000C309A8300BF1437BD465DF8047B704780B4A5
S31520000C4085B000AF78600B467B800023FB817B68F4
S31520000C501B8BFB81FB8923F00403FB81FA897B88AC
S31520000C601343FB817B68FA891A8300BF1437BD467C
S31520000C705DF8047B704780B485B000AF78600B4682
S31520000C807B800023FB817B681B8BFB81FB8923F404
S31520000C908063FB817B881B029AB2FB891343FB810D
S31520000CA07B68FA891A8300BF1437BD465DF8047B3A
S31520000CB0704780B485B000AF78600B467B800023F8
S31520000CC0FB817B689B8BFB81FB8923F00403FB81E3
S31520000CD0FA897B881343FB817B68FA899A8300BF54
S31520000CE01437BD465DF8047B704780B485B000AFED
S31520000CF078600B467B800023FB817B689B8BFB8186
S31520000D00FB8923F48063FB817B881B029AB2FB89D3
S31520000D101343FB817B68FA899A8300BF1437BD464B
S31520000D205DF8047B704780B485B000AF78600B46D1
S31520000D307B800023FB817B681B8BFB81FB8923F057
S31520000D408003FB81FA897B881343FB817B68FA89C0
S31520000D501A8300BF1437BD465DF8047B704780B404
S31520000D6085B000AF78600B467B800023FB817B68D3
S31520000D701B8BFB81FB89C3F30E03FB817B881B0244
S31520000D809AB2FB891343FB817B68FA891A8300BFD9
S31520000D901437BD465DF8047B704780B485B000AF3C
S31520000DA078600B467B800023FB817B689B8BFB81D5
S31520000DB0FB8923F08003FB81FA897B881343FB811F
S31520000DC07B68FA899A8300BF1437BD465DF8047B99
S31520000DD0704780B485B000AF78600B467B800023D7
S31520000DE0FB817B689B8BFB81FB89C3F30E03FB8115
S31520000DF07B881B029AB2FB891343FB817B68FA89A5
S31520000E009A8300BF1437BD465DF8047B704780B4D3
S31520000E1085B000AF78600B467B800023FB817B6822
S31520000E201B8CFB81FB8923F00203FB81FA897B88DB
S31520000E301343FB817B68FA891A8400BF1437BD46A9
S31520000E405DF8047B704780B485B000AF78600B46B0
S31520000E507B800023FB817B681B8CFB81FB8923F035
S31520000E600803FB81FA897B881343FB817B68FA8917
S31520000E701A8400BF1437BD465DF8047B704780B4E2
S31520000E8085B000AF78600B467B800023FB817B68B2
S31520000E901B8CFB81FB8923F02003FB817B881B01B4
S31520000EA09AB2FB891343FB817B68FA891A8400BFB7
S31520000EB01437BD465DF8047B704780B485B000AF1B
S31520000EC078600B467B800023FB817B681B8CFB8133
S31520000ED0FB8923F08003FB817B881B019AB2FB8967
S31520000EE01343FB817B68FA891A8400BF1437BD46F9
S31520000EF05DF8047B704780B485B000AF78600B4600
S31520000F007B800023FB817B681B8CFB81FB8923F480
S31520000F100073FB817B881B029AB2FB891343FB81FA
S31520000F207B68FA891A8400BF1437BD465DF8047BB6
S31520000F30704780B485B000AF78600B467B80002375
S31520000F40FB817B681B8CFB81FB8923F40063FB817F
S31520000F507B881B029AB2FB891343FB817B68FA8943
S31520000F601A8400BF1437BD465DF8047B704780B4F1
S31520000F7085B000AF78600B467B800023FB817B68C1
S31520000F801B8CFB81FB8923F40053FB817B881B038D
S31520000F909AB2FB891343FB817B68FA891A8400BFC6
S31520000FA01437BD465DF8047B704780B485B000AF2A
S31520000FB078600B467B8013463B800023FB817B8831
S31520000FC0012202FA03F3FB817B681B8C9AB2FB8910
S31520000FD0DB439BB213409AB27B681A847B681B8CD6
S31520000FE09AB239887B8801FA03F39BB213439AB2EB
S31520000FF07B681A8400BF1437BD465DF8047B7047B2
S3152000100080B485B000AF78600B467B8013463B806A
S315200010100023FB817B88042202FA03F3FB817B6891
S315200010201B8C9AB2FB89DB439BB213409AB27B6836
S315200010301A847B681B8C9AB239887B8801FA03F361
S315200010409BB213439AB27B681A8400BF1437BD46FD
S315200010505DF8047B704780B582B000AF7860396058
S315200010603B681B88002B0FD13B6859883B689A88C0
S315200010703B681B89786800F0B7FC3B68DB8819461B
S31520001080786800F0E1F836E03B681B88042B0FD126
S315200010903B6859883B689A883B681B89786800F0CA
S315200010A0E6FC3B68DB881946786800F0E9F822E020
S315200010B03B681B88082B0FD13B6859883B689A8868
S315200010C03B681B89786800F01FFD3B68DB88194662
S315200010D0786800F0F3F80EE03B6859883B689A88F8
S315200010E03B681B89786800F057FD3B68DB8819460A
S315200010F0786800F0FFF800BF0837BD4680BD80B491
S3152000110083B000AF78607B6800221A807B6800225B
S315200011105A807B6801229A807B680022DA807B686D
S3152000112000221A8100BF0C37BD465DF8047B70474C
S3152000113080B584B000AF786039600023FB8101233D
S31520001140BB813B685B88002B02D10223FB8101E037
S315200011500023FB813B689B88012B02D10223BB81A4
S3152000116001E00123BB813B681B88002B1CD13B6817
S3152000117059883B689A883B681B89786800F034FC5C
S315200011803B68DB881946786800F05EF83B681B8967
S31520001190BA89F989786800F06AFC3B68DB881946C9
S315200011A0786800F06DF81BE03B6859883B689A88A0
S315200011B03B681B89786800F05AFC3B68DB88194637
S315200011C0786800F05DF83B681B89BA89F9897868E8
S315200011D000F00AFC3B68DB881946786800F034F892
S315200011E000BF1037BD4680BD80B483B000AF7860A5
S315200011F07B685B6B18460C37BD465DF8047B7047F1
S3152000120080B483B000AF78607B689B6B18460C3740
S31520001210BD465DF8047B704780B483B000AF78602C
S315200012207B68DB6B18460C37BD465DF8047B704740
S3152000123080B483B000AF78607B681B6C18460C378F
S31520001240BD465DF8047B704780B483B000AF7860FC
S315200012500B467B807B681B8B9BB223F00C039AB2D8
S315200012607B681A837B681B8B9AB27B8813439AB25E
S315200012707B681A8300BF0C37BD465DF8047B704738
S3152000128080B483B000AF78600B467B807B681B8B75
S315200012909BB223F440639AB27B681A837B681B8BCC
S315200012A09AB27B881B029BB213439AB27B681A833D
S315200012B000BF0C37BD465DF8047B704780B483B011
S315200012C000AF78600B467B807B689B8B9BB223F0BC
S315200012D00C039AB27B689A837B689B8B9AB27B8835
S315200012E013439AB27B689A8300BF0C37BD465DF8DC
S315200012F0047B704780B483B000AF78600B467B8058
S315200013007B689B8B9BB223F440639AB27B689A835B
S315200013107B689B8B9AB27B881B029BB213439AB243
S315200013207B689A8300BF0C37BD465DF8047B704707
S3152000133080B483B000AF786039603B681A883B6818
S315200013405B8813439AB23B689B8813439AB23B68E7
S31520001350DB8813439AB23B681B8913439AB23B68D6
S315200013605B8913439AB23B689B8913439AB27B6885
S31520001370A3F8442000BF0C37BD465DF8047B7047B8
S3152000138080B483B000AF78607B6800221A807B68C7
S3152000139000225A807B6800229A807B680022DA80AD
S315200013A07B6800221A817B6800225A817B68002292
S315200013B09A8100BF0C37BD465DF8047B704780B428
S315200013C083B000AF78600B46FB70FB78002B0CD007
S315200013D07B68B3F844309BB26FEA43436FEA5343CA
S315200013E09AB27B68A3F8442009E07B68B3F84430BE
S315200013F09BB2C3F30E039AB27B68A3F8442000BFC6
S315200014000C37BD465DF8047B704780B483B000AFCF
S3152000141078600B46FB70FB78002B08D07B689B8896
S315200014209BB243F004039AB27B689A8007E07B68FC
S315200014309B889BB223F004039AB27B689A8000BFF4
S315200014400C37BD465DF8047B704780B483B000AF8F
S3152000145078600B46FB70FB78002B08D07B689B8856
S315200014609BB243F001039AB27B689A8007E07B68BF
S315200014709B889BB223F001039AB27B689A8000BFB7
S315200014800C37BD465DF8047B704780B483B000AF4F
S3152000149078600B467B8013467B707B78002B08D0C8
S315200014A07B689B899AB27B8813439AB27B689A8120
S315200014B009E07B689B899AB27B88DB439BB2134009
S315200014C09AB27B689A8100BF0C37BD465DF8047BD3
S315200014D0704780B483B000AF78600B467B807B6812
S315200014E07A889A8200BF0C37BD465DF8047B704728
S315200014F080B485B000AF78600B467B800023FB73F9
S315200015007B681B8A9AB27B8813409BB2002B02D041
S315200015100123FB7301E00023FB73FB7B1846143782
S31520001520BD465DF8047B704780B483B000AF786019
S315200015300B467B807B88DB439AB27B681A8200BF8E
S315200015400C37BD465DF8047B704780B485B000AF8C
S3152000155078600B467B800023FB730023BB8100232E
S315200015607B817B681B8A9AB27B881340BB817B6810
S315200015709B899AB27B8813407B81BB89002B05D03F
S315200015807B89002B02D00123FB7301E00023FB7330
S31520001590FB7B18461437BD465DF8047B704780B444
S315200015A083B000AF78600B467B807B88DB439AB2A2
S315200015B07B681A8200BF0C37BD465DF8047B7047F6
S315200015C080B483B000AF78600B467B8013463B80A7
S315200015D07A883B8813439AB27B68A3F8482000BFD9
S315200015E00C37BD465DF8047B704780B483B000AFEE
S315200015F078600B467B8013467B707B78002B08D067
S315200016007B689B899AB27B8813439AB27B689A81BE
S3152000161009E07B689B899AB27B88DB439BB21340A7
S315200016209AB27B689A8100BF0C37BD465DF8047B71
S31520001630704780B483B000AF78600B46FB70FB78B0
S31520001640002B08D07B689B889BB243F008039AB294
S315200016507B689A8007E07B689B889BB223F008030F
S315200016609AB27B689A8000BF0C37BD465DF8047B32
S31520001670704780B483B000AF78607B681B899BB2CB
S3152000168023F007039AB27B681A8100BF0C37BD4648
S315200016905DF8047B704780B582B000AF78600B465A
S315200016A07B807B881946786800F088F87B681B89E0
S315200016B09BB243F007039AB27B681A8100BF0837B2
S315200016C0BD4680BD80B584B000AFF860084611469F
S315200016D01A4603467B810B463B811346FB807B895A
S315200016E0602B06D1FB8839890122F86800F0BFF902
S315200016F005E0FB8839890122F86800F075F97B89B5
S315200017001946F86800F05AF8FB681B899BB243F02B
S3152000171007039AB2FB681A8100BF1037BD4680BD09
S3152000172080B586B000AFF860084611461A460346D3
S315200017307B810B463B811346FB800023FB82FB8883
S315200017403A897989F86800F0A9F8FB681B89FB8239
S31520001750FB8A23F00703FB82FB8A43F00703FB8205
S31520001760FB8A23F07003FB82FB8A43F07003FB8223
S31520001770FB68FA8A1A8100BF1837BD4680BD80B53E
S3152000178084B000AFF860084611461A4603467B81AE
S315200017900B463B811346FB80FB883A897989F8689A
S315200017A000F07CF8FB681B899BB243F480439AB215
S315200017B0FB681A8100BF1037BD4680BD80B485B056
S315200017C000AF78600B467B800023FB817B681B89FA
S315200017D0FB81FB8923F07003FB81FA897B88134305
S315200017E0FB817B68FA891A8100BF1437BD465DF8F4
S315200017F0047B704780B483B000AF78600B467B8053
S315200018007B689B889BB223F070039AB27B689A8090
S315200018107B689B889AB27B8813439AB27B689A80AE
S3152000182000BF0C37BD465DF8047B704780B483B09B
S3152000183000AF78600B467B807B681B899BB223F0C8
S3152000184007039AB27B681A817B681B899AB27B88C8
S3152000185013439AB27B681A8100BF0C37BD465DF8E8
S31520001860047B704780B483B000AF78600B467B80E2
S315200018707B681B899BB223F080039AB27B681A810E
S315200018807B681B899AB27B8813439AB27B681A813C
S3152000189000BF0C37BD465DF8047B704780B487B027
S315200018A000AFF860084611461A4603467B810B4670
S315200018B03B811346FB800023FB82FB681B89FB824E
S315200018C0FB8ADBB2FB82FB881B029AB23B8913435D
S315200018D09AB27B8913439AB2FB8A1343FB82FB6835
S315200018E0FA8A1A8100BF1C37BD465DF8047B704713
S315200018F080B487B000AFF860084611461A46034602
S315200019007B810B463B811346FB800023FB82002311
S31520001910BB8200237B82FB681B89FB82FB681B8BB7
S31520001920BB82FB681B8C7B82FB8A23F00703FB822E
S31520001930FA8A7B891343FB82BB8A23F4407323F004
S315200019400303BB82BB8A43F4807343F00103BB824B
S315200019507B8A23F022037B82FB881B019AB23B8978
S3152000196013439AB27B8A13437B82FB68FA8A1A81D5
S31520001970FB68BA8A1A83FB687A8A1A8400BF1C37E6
S31520001980BD465DF8047B704780B483B000AF7860B5
S315200019900B46FB70FB78002B08D07B689B889BB29C
S315200019A043F080039AB27B689A8007E07B689B8825
S315200019B09BB223F080039AB27B689A8000BF0C37D3
S315200019C0BD465DF8047B704780B483B000AF786075
S315200019D00B467B807B687A88A3F8502000BF0C37A3
S315200019E0BD465DF8047B704780B487B000AFF860D1
S315200019F0084611461A4603467B810B463B81134611
S31520001A00FB800023FB820023BB82FB681B8C9BB2DE
S31520001A1023F001039AB2FB681A84FB681B8BFB82B6
S31520001A20FB681B8CBB82FB8A23F0F303FB82FB88BB
S31520001A301B019AB23B8913439AB2FB8A1343FB825A
S31520001A40BB8A23F00A03BB827A89BB8A13439BB2E3
S31520001A5043F00103BB82FB68FA8A1A83FB68BA8AC1
S31520001A601A8400BF1C37BD465DF8047B704780B4DE
S31520001A7087B000AFF860084611461A4603467B81B8
S31520001A800B463B811346FB800023FB820023BB824F
S31520001A9000237B82FB681B8C9BB223F010039AB237
S31520001AA0FB681A84FB681B8BFB82FB681B8CBB8242
S31520001AB07B891B017B82FB8A23F440731B051B0D4C
S31520001AC0FB82FB881B039AB2FB8A1343FB823B896A
S31520001AD01B029AB2FB8A1343FB82BB8A23F0A00324
S31520001AE0BB827A8ABB8A13439BB243F01003BB8224
S31520001AF0FB68FA8A1A83FB68BA8A1A8400BF1C37E5
S31520001B00BD465DF8047B704780B487B000AFF860AF
S31520001B10084611461A4603467B810B463B811346EF
S31520001B20FB800023FB820023BB8200237B82FB6891
S31520001B301B8C9BB223F480739AB2FB681A84FB68D1
S31520001B409B8BFB82FB681B8CBB827B891B027B8267
S31520001B50FB8A23F0F303FB82FB881B019AB23B89A5
S31520001B6013439AB2FB8A1343FB82BB8A23F4206376
S31520001B70BB827A8ABB8A13439BB243F48073BB82AF
S31520001B80FB68FA8A9A83FB68BA8A1A8400BF1C37D4
S31520001B90BD465DF8047B704780B487B000AFF8601F
S31520001BA0084611461A4603467B810B463B8113465F
S31520001BB0FB800023FB820023BB8200237B82FB6801
S31520001BC01B8C9BB223F480539AB2FB681A84FB6861
S31520001BD09B8BFB82FB681B8CBB827B891B037B82D6
S31520001BE0FB8A23F440731B051B0DFB823B891B02DA
S31520001BF09AB2FB8A1343FB82FB881B039AB2FB8AA9
S31520001C001343FB82BB8A23F400535B045B0CBB8229
S31520001C107A8ABB8A13439BB243F48053BB82FB6808
S31520001C20FA8A9A83FB68BA8A1A8400BF1C37BD4693
S31520001C305DF8047B704700BF80B400AF164B1B686D
S31520001C40154A43F001031360134B00229A60124B8E
S31520001C501B68114A23F0A85323F4102313600E4B5C
S31520001C600E4A5A600C4B0E4AC3F884200A4B0D4A82
S31520001C70C3F88820084B1B68074A23F48023136087
S31520001C80054B0022DA60044B0022C3F88C2000BFEB
S31520001C90BD465DF8047B70470038024010300024B2
S31520001CA0003000200030002480B483B000AF03460B
S31520001CB0FB71064B00221A70044AFB79137000BF91
S31520001CC00C37BD465DF8047B704700BF02380240E2
S31520001CD080B582B000AF00233B600023FB71002358
S31520001CE0BB71312000F08AFD0346BB713B6801338E
S31520001CF03B603B68B3F5A04F02D0BB79002BF0D0F8
S31520001D00312000F07BFD0346002B02D00123FB711E
S31520001D1001E00023FB71FB7918460837BD4680BDDC
S31520001D2080B485B000AF0346FB710023FB600A4BED
S31520001D301B68FB60FB6823F0F803FB60FB79DB0084
S31520001D40FA681343FB60044AFB68136000BF14372C
S31520001D50BD465DF8047B70470038024080B483B0EE
S31520001D6000AF0346FB71044AFB79136000BF0C37B2
S31520001D70BD465DF8047B70470000474280B483B0BF
S31520001D8000AF0346FB710D4B00221A700B4B00224D
S31520001D901A70FB79012B02D0042B04D007E0074BE5
S31520001DA001221A7003E0054B05221A7000BF00BFFE
S31520001DB00C37BD465DF8047B704700BF7038024083
S31520001DC080B483B000AF0346FB71044AFB791360ED
S31520001DD000BF0C37BD465DF8047B7047800E474236
S31520001DE080B485B000AFF860B9607A603B607B68EC
S31520001DF09A01BB681A433B685B08013B1B041A43E4
S31520001E00FB681A43BB691B06044913434B6000BF9A
S31520001E101437BD465DF8047B704700BF003802408A
S31520001E2080B483B000AF0346FB71044AFB7913608C
S31520001E3000BF0C37BD465DF8047B70476000474203
S31520001E4080B483B000AF786039607B689A013B68C4
S31520001E501B0705491343C1F8843000BF0C37BD4624
S31520001E605DF8047B704700BF0038024080B483B021
S31520001E7000AF0346FB71044AFB79136000BF0C37A1
S31520001E80BD465DF8047B70476800474280B485B044
S31520001E9000AFF860B9607A60FB689A01BB681B06E0
S31520001EA01A437B681B0705491343C1F8883000BFD6
S31520001EB01437BD465DF8047B704700BF00380240EA
S31520001EC080B483B000AF0346FB71044AFB791360EC
S31520001ED000BF0C37BD465DF8047B70477000474253
S31520001EE080B483B000AF0346FB71044AFB791360CC
S31520001EF000BF0C37BD465DF8047B70474C00474257
S31520001F0080B485B000AF786039600023FB600B4B4E
S31520001F109B68FB60FB6823F0EC63FB607A683B6898
S31520001F201343FA681343FB60044AFB68936000BFBF
S31520001F301437BD465DF8047B704700BF0038024069
S31520001F4080B485B000AF786039600023FB600B4B0E
S31520001F509B68FB60FB6823F07843FB607A683B68EC
S31520001F601343FA681343FB60044AFB68936000BF7F
S31520001F701437BD465DF8047B704700BF0038024029
S31520001F8080B485B000AF78600023FB60094B9B6866
S31520001F90FB60FB6823F00303FB60FA687B6813434E
S31520001FA0FB60044AFB68936000BF1437BD465DF8AA
S31520001FB0047B70470038024080B400AF054B9B6815
S31520001FC0DBB203F00C03DBB21846BD465DF8047B9A
S31520001FD0704700BF0038024080B485B000AF7860FB
S31520001FE00023FB60094B9B68FB60FB6823F0F00332
S31520001FF0FB60FA687B681343FB60044AFB689360C6
S3152000200000BF1437BD465DF8047B70470038024098
S3152000201080B485B000AF78600023FB60094B9B68D5
S31520002020FB60FB6823F4E053FB60FA687B6813438C
S31520002030FB60044AFB68936000BF1437BD465DF819
S31520002040047B70470038024080B485B000AF7860CA
S315200020500023FB600A4B9B68FB60FB6823F460430C
S31520002060FB607B68DB00FA681343FB60044AFB686D
S31520002070936000BF1437BD465DF8047B704700BFF0
S315200020800038024080B489B000AF78600023BB617D
S3152000209000237B610023FB6102233B610023FB605D
S315200020A00223BB604A4B9B6803F00C03BB61BB69F0
S315200020B0082B11D0BB69082B44D8BB69002B03D051
S315200020C0BB69042B04D03DE07B68424A1A603DE0A0
S315200020D07B68414A1A6039E03D4B5B689B0D03F0F3
S315200020E00103FB603A4B5B6803F03F03BB60FB6870
S315200020F0002B0CD0384ABB68B2FBF3F3344A526843
S315200021009209C2F3080202FB03F3FB610BE0314A9A
S31520002110BB68B2FBF3F32E4A52689209C2F3080257
S3152000212002FB03F3FB612A4B5B681B0C03F00303E2
S3152000213001335B003B61FA693B69B2FBF3F27B68D2
S315200021401A6003E07B68234A1A6000BF204B9B6815
S3152000215003F0F003BB61BB691B09BB611F4ABB6966
S3152000216013441B78DBB27B617B681A687B69DA4093
S315200021707B685A60164B9B6803F4E053BB61BB69CE
S315200021809B0ABB61154ABB6913441B78DBB27B6192
S315200021907B685A687B69DA407B689A600C4B9B683F
S315200021A003F46043BB61BB695B0BBB610B4ABB6934
S315200021B013441B78DBB27B617B685A687B69DA4003
S315200021C07B68DA6000BF2437BD465DF8047B704724
S315200021D0003802400024F40000127A0064970020A0
S315200021E080B485B000AF78600023FB607B6803F481
S315200021F04073B3F5407F11D10F4B9B68FB60FB68A2
S3152000220023F4F813FB607B6823F0704323F44073B8
S31520002210FA681343FB60084AFB689360064B1A6F03
S315200022207B68C3F30B03044913430B6700BF1437C2
S31520002230BD465DF8047B70470038024080B483B009
S3152000224000AF0346FB71044AFB79136000BF0C37CD
S31520002250BD465DF8047B70473C0E474280B483B090
S3152000226000AF0346FB71044AFB79136000BF0C37AD
S31520002270BD465DF8047B7047400E474280B483B06C
S3152000228000AF7860044A7B68136000BF0C37BD46F8
S315200022905DF8047B704700BF5C01474280B485B07F
S315200022A000AF78600023FB600B4BD3F88C30FB60CB
S315200022B0FB6823F01F03FB607B68013BFA6813432E
S315200022C0FB60054AFB68C2F88C3000BF1437BD4658
S315200022D05DF8047B704700BF0038024080B485B0AB
S315200022E000AF78600023FB600B4BD3F88C30FB608B
S315200022F0FB6823F4F853FB607B68013B1B02FA68FA
S315200023001343FB60044AFB68C2F88C3000BF1437C5
S31520002310BD465DF8047B70470038024080B485B026
S3152000232000AF78600023FB600A4BD3F88C30FB604B
S31520002330FB6823F44013FB60FA687B681343FB6059
S31520002340044AFB68C2F88C3000BF1437BD465DF8DE
S31520002350047B70470038024080B485B000AF7860B7
S315200023600023FB600A4BD3F88C30FB60FB6823F418
S315200023704003FB60FA687B681343FB60044AFB68F2
S31520002380C2F88C3000BF1437BD465DF8047B704719
S315200023900038024080B485B000AF78600023FB602F
S315200023A00A4BD3F88C30FB60FB6823F44033FB6088
S315200023B0FA687B681343FB60044AFB68C2F88C30DA
S315200023C000BF1437BD465DF8047B704700380240D5
S315200023D080B483B000AF7860044A7B68136000BF86
S315200023E00C37BD465DF8047B704700BFE0114742BD
S315200023F080B483B000AF78600B46FB70FB78002B6F
S3152000240006D00A4B1A6B09497B6813430B6306E017
S31520002410064B1A6B7B68DB43044913400B6300BFF2
S315200024200C37BD465DF8047B704700BF003802407C
S3152000243080B483B000AF78600B46FB70FB78002B2E
S3152000244006D00A4B5A6B09497B6813434B6306E057
S31520002450064B5A6B7B68DB43044913404B6300BF32
S315200024600C37BD465DF8047B704700BF003802403C
S3152000247080B483B000AF78600B46FB70FB78002BEE
S3152000248006D00A4B9A6B09497B6813438B6306E097
S31520002490064B9A6B7B68DB43044913408B6300BF72
S315200024A00C37BD465DF8047B704700BF00380240FC
S315200024B080B483B000AF78600B46FB70FB78002BAE
S315200024C006D00A4B1A6C09497B6813430B6406E055
S315200024D0064B1A6C7B68DB43044913400B6400BF30
S315200024E00C37BD465DF8047B704700BF00380240BC
S315200024F080B483B000AF78600B46FB70FB78002B6E
S3152000250006D00A4B5A6C09497B6813434B6406E094
S31520002510064B5A6C7B68DB43044913404B6400BF6F
S315200025200C37BD465DF8047B704700BF003802407B
S3152000253080B483B000AF78600B46FB70FB78002B2D
S3152000254006D00A4B1A6909497B6813430B6106E0DA
S31520002550064B1A697B68DB43044913400B6100BFB5
S315200025600C37BD465DF8047B704700BF003802403B
S3152000257080B483B000AF78600B46FB70FB78002BED
S3152000258006D00A4B5A6909497B6813434B6106E01A
S31520002590064B5A697B68DB43044913404B6100BFF5
S315200025A00C37BD465DF8047B704700BF00380240FB
S315200025B080B483B000AF78600B46FB70FB78002BAD
S315200025C006D00A4B9A6909497B6813438B6106E05A
S315200025D0064B9A697B68DB43044913408B6100BF35
S315200025E00C37BD465DF8047B704700BF00380240BB
S315200025F080B483B000AF78600B46FB70FB78002B6D
S3152000260006D00A4B1A6A09497B6813430B6206E017
S31520002610064B1A6A7B68DB43044913400B6200BFF2
S315200026200C37BD465DF8047B704700BF003802407A
S3152000263080B483B000AF78600B46FB70FB78002B2C
S3152000264006D00A4B5A6A09497B6813434B6206E057
S31520002650064B5A6A7B68DB43044913404B6200BF32
S315200026600C37BD465DF8047B704700BF003802403A
S3152000267080B483B000AF78600B46FB70FB78002BEC
S3152000268006D00A4B1A6D09497B6813430B6506E091
S31520002690064B1A6D7B68DB43044913400B6500BF6C
S315200026A00C37BD465DF8047B704700BF00380240FA
S315200026B080B483B000AF78600B46FB70FB78002BAC
S315200026C006D00A4B5A6D09497B6813434B6506E0D1
S315200026D0064B5A6D7B68DB43044913404B6500BFAC
S315200026E00C37BD465DF8047B704700BF00380240BA
S315200026F080B483B000AF78600B46FB70FB78002B6C
S3152000270006D00A4B9A6D09497B6813438B6506E010
S31520002710064B9A6D7B68DB43044913408B6500BFEB
S315200027200C37BD465DF8047B704700BF0038024079
S3152000273080B483B000AF78600B46FB70FB78002B2B
S3152000274006D00A4B1A6E09497B6813430B6606E0CE
S31520002750064B1A6E7B68DB43044913400B6600BFA9
S315200027600C37BD465DF8047B704700BF0038024039
S3152000277080B483B000AF78600B46FB70FB78002BEB
S3152000278006D00A4B5A6E09497B6813434B6606E00E
S31520002790064B5A6E7B68DB43044913404B6600BFE9
S315200027A00C37BD465DF8047B704700BF00380240F9
S315200027B080B483B000AF03460A46FB711346BB7153
S315200027C0BB79002B08D00C4B1B78DAB20A49FB796F
S315200027D01343DBB20B7009E0074B1B78DAB2FB79A7
S315200027E0DB43DBB204491340DBB20B7000BF0C376E
S315200027F0BD465DF8047B70470D38024080B487B033
S3152000280000AF0346FB710023FB6000237B6100239E
S31520002810FB74FB795B09DBB2FB60FB68012B03D100
S31520002820124B1B687B6109E0FB68022B03D10F4B1F
S315200028301B6F7B6102E00D4B5B6F7B61FB7903F0C5
S315200028401F03FB607A69FB6822FA03F303F0010396
S31520002850002B02D00123FB7401E00023FB74FB7CD8
S3152000286018461C37BD465DF8047B70470038024089
S3152000287080B400AF054B5B6F044A43F08073536707
S3152000288000BFBD465DF8047B704700BF003802409C
S3152000289080B485B000AF0346FB710023FB73094B60
S315200028A0DA68FB791340002B02D00123FB7301E089
S315200028B00023FB73FB7B18461437BD465DF8047B6B
S315200028C0704700BF0038024080B483B000AF034693
S315200028D0FB71044AFB79137000BF0C37BD465DF8C7
S315200028E0047B70470E38024080B582B000AF786016
S315200028F07B683B4A934208D101211020FFF798FEBE
S3152000290000211020FFF794FE65E07B68354A93424C
S315200029100AD101214FF40030FFF76AFE00214FF45F
S315200029200030FFF765FE56E07B682F4A93420AD1B6
S3152000293001214FF48020FFF75BFE00214FF4802019
S31520002940FFF756FE47E07B68284A93420AD10121C9
S315200029504FF40020FFF74CFE00214FF40020FFF734
S3152000296047FE38E07B68224A93420AD101214FF480
S315200029708010FFF73DFE00214FF48010FFF738FE50
S3152000298029E07B681B4A934208D101212020FFF7CA
S315200029904FFE00212020FFF74BFE1CE07B68164AE5
S315200029A093420AD101214FF08040FFF721FE0021FA
S315200029B04FF08040FFF71CFE0DE07B680F4A9342E4
S315200029C009D101214FF00040FFF712FE00214FF000
S315200029D00040FFF70DFE00BF0837BD4680BD00BF93
S315200029E0001001400044004000480040004C0040D8
S315200029F0005000400014014000780040007C004058
S31520002A0080B58AB000AF7860396000237B620023EE
S31520002A103B620023FB610023BB617B681B8A9BB260
S31520002A207B627B6A23F440537B623B68DB881A46D1
S31520002A307B6A13437B627B6A9AB27B681A827B68C5
S31520002A409B899BB27B627B6A23F4B05323F00C03F1
S31520002A507B623B689A883B681B8913439AB23B6822
S31520002A605B8913439BB21A467B6A13437B627B6A5C
S31520002A709AB27B689A817B689B8A9BB27B627B6ACF
S31520002A8023F440737B623B689B891A467B6A134317
S31520002A907B627B6A9AB27B689A8207F108031846A2
S31520002AA0FFF7F0FA7B68304A934203D07B682F4ABF
S31520002AB0934202D17B693B6201E03B693B627B68C2
S31520002AC09B899BB21BB2002B0CDA3A6A13469B00F9
S31520002AD013449A001A443B681B685B00B2FBF3F36D
S31520002AE0FB610BE03A6A13469B0013449A001A4492
S31520002AF03B681B689B00B2FBF3F3FB61FB691C4A36
S31520002B00A2FB03235B091B017B627B6A1B096422F0
S31520002B1002FB03F3FA69D31ABB617B689B899BB2DC
S31520002B201BB2002B0CDABB69DB003233104AA2FB46
S31520002B3003235B0903F007037A6A13437B620BE0E6
S31520002B40BB691B0132330A4AA2FB03235B0903F04C
S31520002B500F037A6A13437B627B6A9AB27B681A8177
S31520002B6000BF2837BD4680BD00100140001401403B
S31520002B701F85EB5180B483B000AF78607B684FF43B
S31520002B8016521A607B6800229A807B680022DA80BF
S31520002B907B6800221A817B680C225A817B6800227E
S31520002BA09A8100BF0C37BD465DF8047B704780B420
S31520002BB085B000AF786039600023FB607B681B8A94
S31520002BC09BB2FB60FB6823F47063FB603B681A884A
S31520002BD03B685B8813439AB23B689B8813439AB23F
S31520002BE03B68DB8813439BB21A46FB681343FB60A2
S31520002BF0FB689AB27B681A8200BF1437BD465DF81F
S31520002C00047B704780B483B000AF78607B68002275
S31520002C101A807B6800225A807B6800229A807B6813
S31520002C200022DA8000BF0C37BD465DF8047B704772
S31520002C3080B483B000AF78600B46FB70FB78002B26
S31520002C4008D07B689B899BB243F400539AB27B6879
S31520002C509A8107E07B689B899BB223F400539AB242
S31520002C607B689A8100BF0C37BD465DF8047B7047B0
S31520002C7080B483B000AF78600B46FB707B681B8BFB
S31520002C809BB223F0FF039AB27B681A837B681B8B67
S31520002C909AB2FB789BB213439AB27B681A8300BF21
S31520002CA00C37BD465DF8047B704780B483B000AF17
S31520002CB078600B46FB70FB78002B0AD07B689B89DB
S31520002CC09BB26FEA43436FEA53439AB27B689A8179
S31520002CD007E07B689B899BB2C3F30E039AB27B689D
S31520002CE09A8100BF0C37BD465DF8047B704780B4DF
S31520002CF083B000AF78600B46FB70FB78002B08D0C2
S31520002D007B689B8A9BB243F400639AB27B689A8263
S31520002D1007E07B689B8A9BB223F400639AB27B68A8
S31520002D209A8200BF0C37BD465DF8047B704780B49D
S31520002D3083B000AF78600B467B807B88C3F30803A3
S31520002D409AB27B689A8000BF0C37BD465DF8047B3B
S31520002D50704780B483B000AF78607B689B889BB255
S31520002D60C3F308039BB218460C37BD465DF8047BB7
S31520002D70704780B483B000AF78600B46FB707B68E9
S31520002D801B8A9BB223F00F039AB27B681A827B6858
S31520002D901B8A9AB2FB789BB213439AB27B681A823B
S31520002DA000BF0C37BD465DF8047B704780B483B006
S31520002DB000AF78600B46FB70FB78002B08D07B6851
S31520002DC09B899BB243F002039AB27B689A8107E003
S31520002DD07B689B899BB223F002039AB27B689A8117
S31520002DE000BF0C37BD465DF8047B704780B483B0C6
S31520002DF000AF78600B467B807B689B899BB223F46F
S31520002E0000639AB27B689A817B689B899AB27B8899
S31520002E1013439AB27B689A8100BF0C37BD465DF892
S31520002E20047B704780B483B000AF78600B467B800C
S31520002E307B681B8A9BB223F020039AB27B681A8296
S31520002E407B681B8A9AB27B8813439AB27B681A8264
S31520002E5000BF0C37BD465DF8047B704780B483B055
S31520002E6000AF78600B46FB70FB78002B08D07B68A0
S31520002E701B8A9BB243F480439AB27B681A8207E08E
S31520002E807B681B8A9BB223F480439AB27B681A82A2
S31520002E9000BF0C37BD465DF8047B704780B483B015
S31520002EA000AF78607B689B899BB243F001039AB29E
S31520002EB07B689A8100BF0C37BD465DF8047B70475E
S31520002EC080B483B000AF78600B46FB70FB78002B94
S31520002ED008D07B689B8A9BB243F008039AB27B6832
S31520002EE09A8207E07B689B8A9BB223F008039AB2FA
S31520002EF07B689A8200BF0C37BD465DF8047B70471D
S31520002F0080B483B000AF78600B46FB707B681B8B68
S31520002F109BB2DBB29AB27B681A837B681B8B9AB210
S31520002F20FB789BB21B029BB213439AB27B681A832F
S31520002F3000BF0C37BD465DF8047B704780B483B074
S31520002F4000AF78600B46FB70FB78002B08D07B68BF
S31520002F509B8A9BB243F020039AB27B689A8207E051
S31520002F607B689B8A9BB223F020039AB27B689A8265
S31520002F7000BF0C37BD465DF8047B704780B483B034
S31520002F8000AF78600B46FB70FB78002B08D07B687F
S31520002F909B8A9BB243F010039AB27B689A8207E021
S31520002FA07B689B8A9BB223F010039AB27B689A8235
S31520002FB000BF0C37BD465DF8047B704780B483B0F4
S31520002FC000AF78600B467B807B689B8A9BB223F0A0
S31520002FD004039AB27B689A827B689B8A9AB27B8822
S31520002FE013439AB27B689A8200BF0C37BD465DF8C0
S31520002FF0047B704780B483B000AF78600B46FB70CB
S31520003000FB78002B08D07B689B8A9BB243F0020397
S315200030109AB27B689A8207E07B689B8A9BB223F0F0
S3152000302002039AB27B689A8200BF0C37BD465DF8D0
S31520003030047B704780B483B000AF78600B467B80FA
S3152000304013467B707B78002B08D07B689B8A9AB2CC
S315200030507B8813439AB27B689A8209E07B689B8AB5
S315200030609AB27B88DB439BB213409AB27B689A82E2
S3152000307000BF0C37BD465DF8047B704780B487B02F
S3152000308000AF78600B467B8013467B7000233B6144
S315200030900023FB600023BB6000237B617B687B6190
S315200030A07B88DBB25B09DBB23B617B8803F01F03C5
S315200030B0FB600122FB6802FA03F3BB603B69012B2C
S315200030C003D17B690C337B6109E03B69022B03D179
S315200030D07B6910337B6102E07B6914337B617B78EB
S315200030E0002B06D07B6919687B69BA680A431A6087
S315200030F006E07B691968BB68DA437B690A401A6077
S3152000310000BF1C37BD465DF8047B704780B485B090
S3152000311000AF78600B467B800023FB737B681B889F
S315200031209AB27B8813409BB2002B02D00123FB73FB
S3152000313001E00023FB73FB7B18461437BD465DF880
S31520003140047B704780B483B000AF78600B467B80E9
S315200031507B88DB439AB27B681A8000BF0C37BD465A
S315200031605DF8047B704780B487B000AF78600B466B
S315200031707B800023FB6000237B610023BB60002350
S31520003180FB747B88DBB25B09DBB2BB607B8803F018
S315200031901F037B6101227B6902FA03F37B61BB6813
S315200031A0012B07D17B689B899BB21A467B6913400A
S315200031B07B6111E0BB68022B07D17B681B8A9BB21F
S315200031C01A467B6913407B6106E07B689B8A9BB22B
S315200031D01A467B6913407B617B881B0A9BB2FB6086
S315200031E00122FB6802FA03F3FB607B681B889BB213
S315200031F01A46FB681340FB607B69002B05D0FB68F1
S31520003200002B02D00123FB7401E00023FB74FB7C1E
S3152000321018461C37BD465DF8047B704780B485B0E0
S3152000322000AF78600B467B800023FB810023BB81A7
S315200032307B881B0AFB81FB89012202FA03F3BB81EF
S31520003240BB89DB439AB27B681A8000BF1437BD4620
S315200032505DF8047B704700BF80B500AF01214FF0B9
S315200032600050FFF7C5F900214FF00050FFF7C0F9D5
S3152000327000BF80BD80B485B000AF78603960002380
S31520003280FB600023BB60144B1B68FB6040F6FE729C
S315200032907B6802FA03F3DB43FA681340FB603B6862
S315200032A01A683B685B681A433B689B681A433B680D
S315200032B0DB681343BB60BA687B6802FA03F3FA68DB
S315200032C01343FB60044AFB68136000BF1437BD46F6
S315200032D05DF8047B704700BF0074004080B483B063
S315200032E000AF78607B6800221A607B6800225A60F3
S315200032F07B6800229A607B680022DA6000BF0C3768
S31520003300BD465DF8047B704780B483B000AF78601B
S315200033100B46FB70FB78002B09D00D4B1A68012158
S315200033207B6801FA03F30A4913430B6009E0084B53
S315200033301A6801217B6801FA03F3DB430449134031
S315200033400B6000BF0C37BD465DF8047B704700BF9D
S315200033500074004080B483B000AF78600B46FB70E9
S31520003360FB78002B0AD00E4B5A687B681B0901217B
S3152000337001FA03F30A4913434B600AE0084B5A68E3
S315200033807B681B09012101FA03F3DB43044913403F
S315200033904B6000BF0C37BD465DF8047B704700BF0D
S315200033A00074004080B483B000AF0346FB71FB7904
S315200033B0002B06D0094B5B68084A43F00303536091
S315200033C005E0064B5B68054A23F00303536000BF04
S315200033D00C37BD465DF8047B704700BF0074004083
S315200033E080B485B000AFF860B9601346FB71FB79F5
S315200033F0002B09D00C4B1A68B968FB6801FA03F355
S31520003400094913430B6009E0074B1A68B968FB6842
S3152000341001FA03F3DB43044913400B6000BF143762
S31520003420BD465DF8047B70470074004080B485B0CB
S3152000343000AF78600B467B800023FB60084BFB6067
S31520003440FA687B6813440833FB60FB681A467B885E
S31520003450136000BF1437BD465DF8047B704700BF7C
S315200034600074004080B485B000AF78600B467B8046
S315200034700023FB60084BFB60FA687B681344143317
S31520003480FB60FB681A467B88136000BF1437BD4675
S315200034905DF8047B704700BF0074004080B485B09F
S315200034A000AF78600B467B8013463B800023FB6091
S315200034B00023BB607B68082B05D17B881A023B88DA
S315200034C01343FB6004E07B881A043B881343FB60AC
S315200034D0074BBB607A68BB6813442033BB60BB686C
S315200034E0FA681A6000BF1437BD465DF8047B704742
S315200034F00074004080B485B000AF78600023FB6084
S31520003500084BFB607B689A08FB6813442C33FB60EE
S31520003510FB681B689BB218461437BD465DF8047BD2
S31520003520704700BF0074004080B483B000AF78605D
S315200035300B46FB70FB78002B0AD00E4B1A684FF413
S3152000354080517B6801FA03F30A4913430B600AE0B2
S31520003550084B1A684FF480517B6801FA03F3DB436A
S31520003560044913400B6000BF0C37BD465DF8047B51
S31520003570704700BF0074004080B485B000AFF8608B
S31520003580B9601346FB71FB79002B09D00C4B1A68E6
S31520003590B968FB6801FA03F3094913430B6009E094
S315200035A0074B1A68B968FB6801FA03F3DB43044941
S315200035B013400B6000BF1437BD465DF8047B70478F
S315200035C00074004080B485B000AF78603960002375
S315200035D0FB730A4B5A6B39687B6801FA03F3134075
S315200035E0002B02D00123FB7301E00023FB73FB7B3E
S315200035F018461437BD465DF8047B704700740040BA
S3152000360080B483B000AF7860396006493A687B6839
S3152000361002FA03F34B6300BF0C37BD465DF8047B0B
S31520003620704700BF0074004080B485B000AF78605A
S3152000363039600023FB730023BB60104B1A6839687E
S315200036407B6801FA03F31340BB600C4B5A6B396855
S315200036507B6801FA03F31340002B05D0BB68002BCF
S3152000366002D00123FB7301E00023FB73FB7B18468A
S315200036701437BD465DF8047B704700BF00740040D8
S3152000368080B483B000AF7860396006493A687B68B9
S3152000369002FA03F34B6300BF0C37BD465DF8047B8B
S315200036A0704700BF0074004080B582B000AF7860DC
S315200036B07B684B4A934208D101210120FEF738FF4F
S315200036C000210120FEF734FF86E07B68454A9342BD
S315200036D008D101210220FEF72BFF00210220FEF750
S315200036E027FF79E07B68404A934208D101210420D4
S315200036F0FEF71EFF00210420FEF71AFF6CE07B6810
S315200037003A4A934208D101210820FEF711FF0021F1
S315200037100820FEF70DFF5FE07B68354A934208D10B
S3152000372001211020FEF704FF00211020FEF700FFE4
S3152000373052E07B682F4A934208D101212020FEF7D0
S31520003740F7FE00212020FEF7F3FE45E07B682A4A9B
S31520003750934208D101214020FEF7EAFE00214020B5
S31520003760FEF7E6FE38E07B68244A934208D1012121
S315200037708020FEF7DDFE00218020FEF7D9FE2BE01B
S315200037807B681F4A93420AD101214FF48070FEF7CD
S31520003790CFFE00214FF48070FEF7CAFE1CE07B6846
S315200037A0184A93420AD101214FF40070FEF7C0FE59
S315200037B000214FF40070FEF7BBFE0DE07B68124A35
S315200037C0934209D101214FF48060FEF7B1FE00211A
S315200037D04FF48060FEF7ACFE00BF0837BD4680BDC3
S315200037E0000002400004024000080240000C024093
S315200037F0001002400014024000180240001C024043
S3152000380000200240002402400028024080B487B0F5
S3152000381000AF7860396000237B6100233B61002381
S31520003820FB6000237B6176E001227B6902FA03F3C9
S315200038303B613B681B683A691340FB60FA683B6949
S315200038409A4265D17B681A687B695B00032101FA7D
S3152000385003F3DB431A407B681A607B681A683B686F
S315200038601B7919467B695B0001FA03F31A437B68CF
S315200038701A603B681B79012B03D03B681B79022B0E
S315200038802ED17B689A687B695B00032101FA03F3DA
S31520003890DB431A407B689A607B689A683B685B7951
S315200038A019467B695B0001FA03F31A437B689A6029
S315200038B07B685A687B699BB2194601238B40DB43A0
S315200038C01A407B685A607B685B683A689279114631
S315200038D07A6992B201FA02F292B21A437B685A606E
S315200038E07B68DA687B699BB25B00032101FA03F3EC
S315200038F0DB431A407B68DA607B68DA683B68DB79F1
S3152000390019467B695B0001FA03F31A437B68DA6088
S315200039107B6901337B617B690F2B85D900BF00BF93
S315200039201C37BD465DF8047B704780B483B000AF7A
S3152000393078607B684FF6FF721A607B6800221A71E6
S315200039407B6800225A717B6800229A717B6800226C
S31520003950DA7100BF0C37BD465DF8047B704780B432
S3152000396085B000AF78600B467B804FF48033FB60D8
S315200039707A88FB681343FB60FA687B68DA617A8889
S315200039807B68DA61FA687B68DA617B68DB69FB60F1
S315200039907B68DB69FB6000BF1437BD465DF8047B9E
S315200039A0704780B485B000AF78600B467B800023DB
S315200039B0FB737B681A697B881340002B02D0012396
S315200039C0FB7301E00023FB73FB7B18461437BD46CF
S315200039D05DF8047B704780B483B000AF78607B6865
S315200039E01B699BB218460C37BD465DF8047B7047B1
S315200039F080B485B000AF78600B467B800023FB73D4
S31520003A007B685A697B881340002B02D00123FB7305
S31520003A1001E00023FB73FB7B18461437BD465DF897
S31520003A20047B704780B483B000AF78607B685B69A5
S31520003A309BB218460C37BD465DF8047B704780B4B0
S31520003A4083B000AF78600B467B807B687A881A83C8
S31520003A5000BF0C37BD465DF8047B704780B483B049
S31520003A6000AF78600B467B807B687A885A8300BFDC
S31520003A700C37BD465DF8047B704780B483B000AF39
S31520003A8078600B467B8013467B707B78002B03D0B7
S31520003A907B687A881A8302E07B687A885A8300BF1B
S31520003AA00C37BD465DF8047B704780B483B000AF09
S31520003AB078600B467B807A887B685A6100BF0C371A
S31520003AC0BD465DF8047B704780B483B000AF786054
S31520003AD00B467B807B685A697B885A407B685A6193
S31520003AE000BF0C37BD465DF8047B704780B485B0B7
S31520003AF000AF78600B467B8013467B700023FB600B
S31520003B000023BB607A787B8803F007039B0002FAC8
S31520003B1003F3FB607B88DB089BB21A467B6808327E
S31520003B2053F822207B8803F007039B000F2101FA1C
S31520003B3003F3DB437988C90889B2084602EA030100
S31520003B407B6800F1080243F822107B88DB089BB2D1
S31520003B501A467B68083253F82230FA681343BB6052
S31520003B607B88DB089BB21A467B680832B96843F823
S31520003B70221000BF1437BD465DF8047B704700BF96
S31520003B8080B400AF00BFBD465DF8047B704780B5AA
S31520003B9086B000AF4548FFF787FD454802F072FA28
S31520003BA0444802F06FFA01214FF00070FEF780FCC6
S31520003BB001214FF08060FEF77BFC01210220FEF7F9
S31520003BC017FC092209213948FFF790FF092208210D
S31520003BD03648FFF78BFF07F110031846FFF7A5FEBF
S31520003BE04FF400733B6102233B750023BB75002312
S31520003BF0FB7502237B7507F1100319462B48FFF747
S31520003C0005FE4FF480733B6102233B750023BB7591
S31520003C100123FB7502237B7507F110031946234800
S31520003C20FFF7F4FD092206212048FFF75FFF09224E
S31520003C3005211E48FFF75AFF40233B6102233B75AF
S31520003C400023BB750023FB7502237B7507F1100348
S31520003C5019461648FFF7DAFD20233B6102233B7500
S31520003C600023BB750123FB7502237B7507F1100327
S31520003C7019460E48FFF7CAFD0023BB720023FB72CC
S31520003C8001233B7300233B8000237B800023BB80E2
S31520003C900023FB8000233B8101237B733B46184690
S31520003CA002F0E5FA00BF1837BD4680BD0004024089
S31520003CB0006400400068004080B586B000AF012156
S31520003CC04FF00050FEF7F4FB07F110031846FFF7FC
S31520003CD02CFE20233B6103233B750023FB7507F154
S31520003CE0100319460F48FFF791FDFFF7B5FA3B463B
S31520003CF01846FFF7F3FA00233B6000237B6000237E
S31520003D00FB603B4619461020FFF7B4FA012110202C
S31520003D10FFF7FAFA00210820FFF7A4FB00BF1837A7
S31520003D20BD4680BD0000024080B584B000AF0121B1
S31520003D304FF48040FEF7DCFB0721012000F0E4F879
S31520003D4002F098F83B46184602F020F980233B60A3
S31520003D5000233B710C237B710123BB713B46184624
S31520003D6002F0A2F807F108031846FFF7DEFD02234A
S31520003D70BB6001233B730123BB730023FB73012329
S31520003D807B7307F1080319461848FFF73FFD012307
S31520003D90BB6001233B730123BB730023FB73012309
S31520003DA07B7307F1080319461048FFF72FFD012200
S31520003DB002210E48FFF761FE012201210B48FFF781
S31520003DC05CFE8023BB6000233B730023BB73002370
S31520003DD0FB7301237B7307F1080319460348FFF79A
S31520003DE015FD00BF1037BD4680BD00BF0004024050
S31520003DF080B483B000AFEFF314833B603B6823F0BD
S31520003E0003037B607B6883F3148800BF094B4FF460
S31520003E1004725A61074B5B69064A43F008035361F3
S31520003E20054B4FF000425A6000BF0C37BD465DF887
S31520003E30047B704700ED00E030EF00E080B500AF76
S31520003E4001210820FEF734FB01210820FEF770FC33
S31520003E5000BF80BD80B400AF124A02E0002342F8C2
S31520003E60043B114B9A42F9D300BFBD465DF8047B53
S31520003E70704780B500AFFFF7EDFFFFF781FEFFF734
S31520003E8086FEFFF719FFFFF74FFFFFF7B1FFFFF79A
S31520003E90D5FF00BF80BD80B400AF00BFBD465DF832
S31520003EA0047B7047B89E00204022012080B500AFD9
S31520003EB001214FF48040FEF7BBFB00214FF48040E8
S31520003EC0FEF7B6FB00BF80BD80B483B000AF0346CB
S31520003ED0FB71044AFB79136000BF0C37BD465DF8C1
S31520003EE0047B70470038014080B483B000AF03469E
S31520003EF0FB71044AFB79136000BF0C37BD465DF8A1
S31520003F00047B70472000274280B485B000AF03466B
S31520003F100A46FB711346BB710023FB60BB7903F095
S31520003F2003039B000F2202FA03F3FB60164ABB79B8
S31520003F309B08DBB2023352F82320FB68DB4312488E
S31520003F40B9798908C9B21A408B1C40F823200E4A39
S31520003F50BB799B08DBB2023352F82320F979BB796F
S31520003F6003F003039B0001FA03F30748B979890894
S31520003F70C9B21A438B1C40F8232000BF1437BD4614
S31520003F805DF8047B704700BF0038014080B483B0E1
S31520003F9000AF7860044A7B68136000BF0C37BD46CB
S31520003FA05DF8047B704700BFDC00274280B483B0F5
S31520003FB000AF0346FB71044AFB79136000BF0C3740
S31520003FC0BD465DF8047B70470004274280B483B069
S31520003FD000AF0023FB71094B1B6A03F48073002B8F
S31520003FE002D00123FB7101E00023FB71FB79184607
S31520003FF00C37BD465DF8047B704700BF0038014092
S3152000400080B483B000AF0346FB71FB7903F01F0336
S31520004010012202FA03F1064A97F907305B0942F8B2
S31520004020231000BF0C37BD465DF8047B704700BFE8
S3152000403000E100E080B483B000AF03463960FB7135
S3152000404097F90730002B0BDA3B68DAB20C49FB797B
S3152000405003F00F03043B1201D2B20B441A7609E097
S315200040603B68DAB2074997F907301201D2B20B44FE
S3152000407083F8002300BF0C37BD465DF8047B7047EC
S3152000408000ED00E000E100E080B582B000AF78608E
S315200040900EE07B681B780D2B07D07B685A1C7A6054
S315200040A01B78184600F060F902E07B6801337B60DC
S315200040B07B681B78002BECD100BF00BF0837BD46BC
S315200040C080BD80B586B000AF786000237B617B68B9
S315200040D003F00F027B69591C796110498A5C07F14C
S315200040E018010B4403F80C2C7B681B097B607B684A
S315200040F0002BECD10AE07B69013B7B6107F10C02C6
S315200041007B6913441B78184600F02EF97B69002B37
S31520004110F1D100BF00BF1837BD4680BD749700207F
S3152000412080B59EB000AF78607B68002B02DA4FF036
S31520004130FF3300E001233B677B683A6F02FB03F302
S315200041407B6000237B6779681C4B83FB01239A10D5
S31520004150CB17D21A13469B0013445B00CA1A7B6FF7
S31520004160591C796716498A5C07F178010B4403F8D4
S315200041706C2C7B68114A82FB03129210DB17D31A30
S315200041807B607B68002BDED13B6F002B0EDA2D2067
S3152000419000F0EAF80AE07B6F013B7B6707F10C022F
S315200041A07B6F13441B78184600F0DEF87B6F002BDC
S315200041B0F1D100BF00BF7837BD4680BD6766666611
S315200041C07497002080B483B000AF10237B607B6897
S315200041D083F3118800BF00BF0C37BD465DF8047B12
S315200041E0704780B483B000AF30237B607B6883F355
S315200041F0118800BF00BF0C37BD465DF8047B7047B1
S3152000420080B584B000AF78600B48FFF73DFF0B4BBD
S315200042101B68002B02D1094B094A1A60074B1B6801
S31520004220FB60064B1A687B681344044A1360FB68DC
S3152000423018461037BD4680BD4091002028A2002098
S315200042404022012080B485B000AF786039603B6899
S3152000425003F5F95310337A6813607B681B68BB60DB
S315200042600023FB600AE0FB689B001A46BB681344E8
S315200042701A4600231360FB680133FB60FB68332B6F
S31520004280F1DDBB686FF016021A60BB6804331A466C
S3152000429003231360BB6884331A464FF08073136080
S315200042A000BF1437BD465DF8047B704780B485B0E7
S315200042B000AF786039607B681B688033FB60FB68E1
S315200042C03A681A6000BF1437BD465DF8047B704714
S315200042D080B584B000AF1D48FBF7A0FE3B1D1846F5
S315200042E0FBF7E8FF40F24733BB803B1D19461748D2
S315200042F0FBF774FF164B174A1A6002216FF0010074
S31520004300FFF798FE144B154A1A6000216FF004003F
S31520004310FFF790FE124B134A1A6002213220FFF754
S3152000432089FE3220FFF76CFE00210848FCF70CF8C6
S3152000433001210648FCF7D5F8012202210348FDF7A2
S31520004340A4F800BF1037BD4680BD00BF000C00405A
S3152000435038C00120D17400202CC00120CD7400204B
S3152000436008C10120EF46002080B582B000AF034689
S31520004370FB71FB799BB219460748FEF7D8FC00BFB4
S3152000438080210548FEF7C2FE0346002BF8D000BF69
S3152000439000BF0837BD4680BD0010014080B500AF84
S315200043A01248FBF7EDFF03461A46114B1A60114BD4
S315200043B001221A60104B00221A60104B1B68002B3A
S315200043C006D00E4B1B680E4A1268002110469847ED
S315200043D0084B00221A60084B1B68002B01D000F006
S315200043E05DFA054B00221A6000BF80BD000C00401C
S315200043F0C89E0020C09E0020C49E0020389F00201A
S31520004400D89E002080B500AF1248FBF7B9FF0346BF
S315200044101A46114B1A60114B01221A60104B0022CA
S315200044201A60104B5B68002B06D00E4B5B680E4A59
S315200044305268012110469847084B00221A60084B03
S315200044401B68002B01D000F029FA054B00221A60C8
S3152000445000BF80BD000C0040C89E0020C09E0020EA
S31520004460C49E0020389F0020D89E002080B500AF33
S315200044701248FBF785FF03461A46114B1A60114B6B
S3152000448001221A60104B00221A60104B9B68002BE9
S3152000449006D00E4B9B680E4A92680221104698471A
S315200044A0084B00221A60084B1B68002B01D000F035
S315200044B0F5F9054B00221A6000BF80BD000C0040B4
S315200044C0C89E0020C09E0020C49E0020389F002049
S315200044D0D89E002080B485B000AF78603960002374
S315200044E0FB603B681B68BB6004E0BB68FB60BB6885
S315200044F01B68BB60BB68002B05D0BB689A687B68CD
S315200045009B689A42F1DD7B68BA681A60FB68002BCB
S3152000451003D13B687A681A6002E0FB687A681A6001
S3152000452000BF1437BD465DF8047B704780B485B064
S3152000453000AF786039600023FB603B681B68BB6076
S3152000454004E0BB68FB60BB681B68BB60BB68002BD4
S3152000455005D0BB685A687B685B689A42F1DD7B6848
S31520004560BA681A60FB68002B03D13B687A681A6028
S3152000457002E0FB687A681A6000BF1437BD465DF812
S31520004580047B704780B584B000AF78607B681B6879
S31520004590FB60FB68002B04D0FB681A687B681A60F6
S315200045A00CE00948FFF770FD002202210748FFF7BB
S315200045B064FA0748FFF768FD30BFFDE7FB68184639
S315200045C01037BD4680BD00BF589100200004024030
S315200045D06491002080B584B000AF78607B681B684A
S315200045E0FB60FB68002B04D0FB681A687B681A60A6
S315200045F00CE00948FFF748FD002202210748FFF793
S315200046003CFA0748FFF740FD30BFFDE7FB68184638
S315200046101037BD4680BD00BF5891002000040240DF
S315200046207091002080B483B000AF786039603B6819
S315200046301A687B681A603B687A681A6000BF0C3774
S31520004640BD465DF8047B704780B483B000AF7860C8
S3152000465039603B681A687B689A603B687A681A609A
S3152000466000BF0C37BD465DF8047B704780B485B02B
S3152000467000AF78607B681B68FB60FB689A687B6884
S315200046801A60FB6818461437BD465DF8047B7047F0
S3152000469080B485B000AF786039600023FB603B684A
S315200046A01B68BB6004E0BB68FB60BB681B68BB6023
S315200046B0BB68002B03D0BA687B689A42F3D1BB68EB
S315200046C0002B0DD0FB68002B04D0BB681A68FB6852
S315200046D01A6003E0BB681A683B681A60012300E091
S315200046E0002318461437BD465DF8047B704780B515
S315200046F082B000AF02211E48FCF751FF1C48FBF791
S315200047003FFE03467B6007E01A48FFF73BFF034660
S3152000471019491846FFF7DEFE164B1B68002B06D0FC
S31520004720144B1B685A687B68D31A002BECDD114B9F
S315200047301B68002B16D00E48FBF722FE03463B6073
S315200047400C4B1B685B683A689A4204DD0022022102
S315200047500A48FFF792F9074B1B685B68194604481D
S31520004760FCF74DF900F09AF800BF0837BD4680BD2A
S31520004770000C0040BC9E0020B89E00200004024091
S315200047800346024A136010DFF74600BFE49E00206E
S315200047900346054A1360054B5B68044A43F0805381
S315200047A05360F74600BF00BFE49E002000ED00E006
S315200047B080B582B000AF7860094B5B68C3F308030D
S315200047C0002B03D17868FFF7DBFF02E07868FFF75C
S315200047D0DFFFFFF706FD00BF0837BD4680BD00BFDF
S315200047E000ED00E090B585B000AF234B1C68234850
S315200047F0FFF7C8FE0346E360E368BB60FFF7F1FC02
S31520004800BB68D868BB681969BB685B691A4600F043
S3152000481015F9FFF7D7FC1A49B868FFF703FF194BBC
S315200048201B689B68DB687B60144B1B68002B0AD0D7
S315200048307B68002BD9D0114B1B689A687B689B68D4
S31520004840D31A002BD1DD0F48FFF710FF03460E4980
S315200048501846FFF7F9FE0B4B1B68FB6003E0FB686D
S315200048601B691B68FB60FB681B69002BF7D1F86886
S31520004870FFF79EFFB9E700BF94970020B89E00205F
S3152000488088970020909700208C97002080B500AF55
S3152000489000F004F8FFF7A5FC30BFFBE780B582B037
S315200048A000AF144B1B68DB687B60134B1B68002B27
S315200048B01BD0124B1B68002B17D07B68002B07D010
S315200048C00D4B1B689A687B689B68D31A002B0CDA01
S315200048D00A48FFF7CBFE034606491846FFF7B4FE03
S315200048E0044B1B681846FFF763FF00BF0837BD4619
S315200048F080BD00BF90970020B89E00208C97002096
S3152000490080B588B000AFF860B9607A603B60EFF39D
S3152000491012833B613B691B09012B14BF0123002332
S31520004920DBB2FB77FFF74EFC3A48FFF753FEB86140
S31520004930BB697A68DA60BB693A681A61BB69BA6A88
S315200049405A61354B1B68002B04D1344B1B68DB683E
S315200049505B6801E0324B1B68FA681A44BB695A60EF
S31520004960BB695A68BB68002B01DDBB6801E06FF0AC
S3152000497000431A44BB699A602A48FBF701FD0346A7
S315200049807B61BB695A687B69D31A002B16DD2649E1
S31520004990B869FFF7CBFD244B1B685B687A699A429E
S315200049A004DD002202212148FFF767F81E4B1B6811
S315200049B05B6819461B48FCF722F821E01C49B869B8
S315200049C0FFF788FDFB7F002B1AD01A4B1B68002BA4
S315200049D016D0174B1B689A68174B1B68DB689B68B9
S315200049E0D31A002B0CDA1348FFF740FE0346124970
S315200049F01846FFF729FE104B1B681846FFF7D8FE0E
S31520004A00FB7F002B01D0FFF7ECFBBB691846203754
S31520004A10BD4680BD88970020C09E00209497002028
S31520004A20C89E0020000C0040BC9E002000040240CE
S31520004A30B89E00208C9700209097002080B588B0E3
S31520004A4000AFF860B9607A60EFF312833B613B698F
S31520004A501B09012B14BF01230023DBB2FB76FFF7D2
S31520004A60B1FBFB681B68FB61FB69002B37D003E0B9
S31520004A70FB691B691B68FB61FB691B69002BF7D16E
S31520004A80304B1B68FA699A4202D0FB7E002B07D175
S31520004A90FB7E002B01D0FFF7A4FB4FF0FF334DE048
S31520004AA0FB685B68002B03D0FB685B6800221A61F9
S31520004AB0244B1A68FB685A60224B1B68FA681A61F5
S31520004AC0F869FFF775FE1F4B1B68DB68002B06D1C4
S31520004AD0FB7E002B01D0FFF784FB00232EE0194B31
S31520004AE01A68FB681A60FB7E002B05D0FB685B68A2
S31520004AF0012B01D0FFF775FBBB687968F8689847EA
S31520004B007861FFF75FFBFB6800221A60FB685B6831
S31520004B10FB61FB69002B0BD0FB69012B08D0FB68DE
S31520004B2000225A60FB6900221A61F869FFF740FEED
S31520004B30FB7E002B01D0FFF754FB7B6918462037FC
S31520004B40BD4680BD9497002080B586B000AF7860C2
S31520004B50EFF31283FB60FB681B09012B14BF0123B3
S31520004B600023DBB2FB74FFF72DFB1F497868FFF7A4
S31520004B708FFD0346002B06D11C497868FFF788FD78
S31520004B800346002B04D01A497868FFF74BFD21E035
S31520004B90184B1B687B611AE0174B1B687A699A428F
S31520004BA012D07B69DB687A689A420DD17B691A69D3
S31520004BB07B68DB689A4207D17B690022DA600C4960
S31520004BC07868FFF72FFD05E07B699B687B617B6931
S31520004BD0002BE1D1FB7C002B01D0FFF702FB00BFAD
S31520004BE01837BD4680BD00BFBC9E0020B89E002061
S31520004BF088970020909700209497002080B485B055
S31520004C0000AF7860EFF31283FB60FB681B09012B72
S31520004C1004D0074B1B68DB685B6801E0054B1B680B
S31520004C207A68136000BF1437BD465DF8047B704771
S31520004C3094970020C89E002080B485B000AF78608D
S31520004C40EFF31283FB60FB681B09012B04D0084B92
S31520004C501B68DB685B6801E0064B1B687A68126894
S31520004C609B1A18461437BD465DF8047B704700BF73
S31520004C7094970020C89E002080B584B000AFEFF343
S31520004C8012837B607B681B09012B14BF0123002341
S31520004C90DBB2FB73FFF796FA0C48FBF771FB034672
S31520004CA0BB60FB7B002B01D0FFF79BFAFB7B002B25
S31520004CB004D0074B1B68DB685B6801E0054B1B686B
S31520004CC0BA68D31A18461037BD4680BD000C00407E
S31520004CD094970020C89E002080B582B000AF0023A4
S31520004CE07B6012E07B685A1C13465B001344DB0092
S31520004CF0444A991843487A6813465B001344DB00FC
S31520004D00034419607B6801337B607B681C2BE9DDDB
S31520004D103C4B0022C3F8B82200237B6013E07B685B
S31520004D205A1C13469B0013449B00374A9918364851
S31520004D307A6813469B0013449B000344083319608A
S31520004D407B6801337B607B68022BE8DD2E4B0022DB
S31520004D505A6400237B6030E02B497A6813469B0017
S31520004D6013449B000B4404337A681A607A6813460E
S31520004D709B0013449B00244A1A447B685B03234907
S31520004D800B4419461046FFF75DFA7A6813469B00D6
S31520004D9013449B001C4A13441D491846FFF786FA04
S31520004DA019497A6813469B0013449B000B44103321
S31520004DB000221A607B6801337B607B68032BCBDD86
S31520004DC0144B4FF0FF325A60124B00229A60114B5F
S31520004DD000221A610F4B0022DA600F48FFF754F9C0
S31520004DE00E48FFF751F90E48FFF74EF90A48FFF72C
S31520004DF04BF90948FFF748F9FFF76AFA00BF083769
S31520004E00BD4680BD589F0020E89E002030A200208D
S31520004E10E5470020449F00207C91002080910020BF
S31520004E208C91002080B586B000AFF860B96013463B
S31520004E30FB71FB79022B41D8EFF312833B613B696F
S31520004E401B09012B14BF01230023DBB2FB75FFF7DF
S31520004E50B9F9FB79022B0ED0022B10DC002B02D0E5
S31520004E60012B04D00BE0174B174A1A6014E0174B9E
S31520004E70174A1A6010E0174B174A1A600CE01748B9
S31520004E80FFF702F9002202211548FEF7F6FD154824
S31520004E90FFF7FAF830BFFDE7FB791349FA6841F8C6
S31520004EA02320FB791149BA6841F82320FB680122A7
S31520004EB05A60FB7D002B01D0FFF793F900BF18370E
S31520004EC0BD4680BDD4C001209D43002090C0012056
S31520004ED0054400209CC001206D44002058910020EC
S31520004EE000040240A4910020D89E0020389F002074
S31520004EF080B586B002AFF860B9607A60FFF762F9D4
S31520004F00FFF7EAFEBB68002B16D00F48FBF738FAEE
S31520004F1003461A460D4B1A600D4B01221A607B6818
S31520004F200093BB68FA6800210020FFF7E9FC084BD4
S31520004F3000221A60FFF7B2FCFFF7A8FC00231846F0
S31520004F401037BD4680BD00BF000C0040C89E002023
S31520004F50C09E00200000000080B483B000AF03464E
S31520004F60FB71FB7903F01F03012202FA03F1064AC3
S31520004F7097F907305B0942F8231000BF0C37BD466E
S31520004F805DF8047B704700BF00E100E080B483B089
S31520004F9000AF03463960FB7197F90730002B0BDA17
S31520004FA03B68DAB20C49FB7903F00F03043B12018C
S31520004FB0D2B20B441A7609E03B68DAB2074997F970
S31520004FC007301201D2B20B4483F8002300BF0C37FE
S31520004FD0BD465DF8047B704700ED00E000E100E08F
S31520004FE080B582B000AF7860396000220121074881
S31520004FF0FEF743FD02211720FFF7C8FF1720FFF712
S31520005000ABFF00BF0837BD4680BD00BF000402408D
S3152000501080B582B000AF786039607B689B6880215C
S315200050201846FEF7BEFC034618460837BD4680BD27
S3152000503080B582B000AF786039607B689B683A683B
S31520005040D2B201211846FEF718FD00BF0837BD462B
S3152000505080BD80B582B000AF786039607B689B6880
S3152000506001211846FEF730FD00BF0837BD4680BD3A
S3152000507080B584B000AF7860396007F10803184620
S3152000508000F084FF8023BB6000233B733B68002B2A
S3152000509001D0082300E00C237B730123BB7307F1A7
S315200050A00803184600F000FF00BF1037BD4680BD3C
S315200050B080B584B002AF78603960802000F0B8FFF8
S315200050C00346012B14D1802000F0CCFF7B68DB68DF
S315200050D0002B10D07B68DA687B681B690021009161
S315200050E000210020FFF70CFC054B01221A6002E08C
S315200050F00448FEF7C9FF002318460837BD4680BD81
S31520005100C49E0020C491002080B584B002AF786090
S3152000511039607B689B6B012B06D1184B1A461849C0
S315200051201848FFF78BFC26E0174B1A4614491548FA
S31520005130FFF784FC7B6801229A637B230093134B41
S315200051407A6800210020FFF7DBFB114B1A460C4939
S315200051500C48FFF773FC002300930E4B7A6800215E
S315200051600020FFF7CDFB7B2300930B4B7A680021B1
S315200051700020FFF7C5FB0837BD4680BDE89100201B
S315200051806773002020980020F89100209D51002070
S31520005190089200200D5200207552002080B584B060
S315200051A002AF78603960124B1A4612491248FFF74F
S315200051B045FC3B68012B09D1104B1A460D490E4878
S315200051C0FFF73CFC7B6800229A630DE00C4B1A46E5
S315200051D008490948FFF732FC01230093094B7A68F6
S315200051E000210948FFF78CFB00BF0837BD4680BD6C
S315200051F01892002067730020209800202892002013
S315200052003C9200209D510020A086010080B584B0EC
S3152000521002AF78603960002210491148FFF70EFC72
S315200052200346012B16D03B68632B06DD0D4B1A4631
S315200052300D490E48FFF702FC0DE03B6801333B6049
S315200052403B6800930A4B7A6800214FF47A70FFF787
S3152000525057FB00E000BF0837BD4680BD1150002037
S31520005260B89C00204C9200206773002020980020D4
S315200052700D52002080B590B000AF786039600023D1
S31520005280BB6007F10C032E220021184603F060F9BB
S315200052907B683C331846FFF7CFFCF863364B1A463B
S315200052A036493748FFF7CAFB07F10800FB6B354A3A
S315200052B0322103F085F907F108031A462F493048B1
S315200052C0FFF7BCFB304B1A462C492D48FFF7B6FB9F
S315200052D07B685B6B07F108002A4A322103F070F9DC
S315200052E007F108031A4625492548FFF7A7FB274B50
S315200052F01A4622492248FFF7A1FB7B685B6BFA6BB3
S31520005300D31A07F108001F4A322103F059F907F191
S3152000531008031A4619491A48FFF790FB1C4B1A46F0
S3152000532016491748FFF78AFB7B685B6BFA6BD21A24
S31520005330184B83FB02135913D317CB1A164901FBBB
S3152000534003F3D31A154A82FB03125211DB17D31A21
S3152000535007F10800124A322103F032F907F1080357
S315200053601A4606490648FFF769FB7B68FA6B5A63BB
S3152000537000BF4037BD4680BD609200206773002085
S315200053802098002074920020789200208892002095
S315200053909892002089B5F814A08601001F85EB514C
S315200053A0AC92002080B588B002AF7860396007F1F2
S315200053B008031A465D495E48FFF740FBFB7A6B3BC4
S315200053C00C2B00F2A88001A252F823F0A154002051
S315200053D0175500200154002017550020175500208E
S315200053E0D95400201755002017550020515400206D
S315200053F079540020175500201755002029540020E5
S315200054004C4B1A464C494D48FFF718FB4C4B1B6832
S31520005410002B75D17B685A697B230093494B002169
S315200054200020FFF76DFA6BE0474B1A464249434886
S31520005430FFF704FB424B1B68002B63D17B685A693C
S315200054407B230093414B00210020FFF759FA59E0B6
S315200054503F4B1A4638493948FFF7F0FA384B1B6854
S31520005460002B51D17B685A697B230093394B00214D
S315200054700020FFF745FA47E0374B1A462E492F48BA
S31520005480FFF7DCFA2E4B1B68002B3FD17B681A698D
S315200054903B7B0093314B00210020FFF731FA35E0AA
S315200054A02F4B1A4624492548FFF7C8FA244B1B6878
S315200054B0002B2DD17B7B7B613B7B002B02D17B6933
S315200054C05B427B617B685A697B690093234B002191
S315200054D00020FFF715FA1BE0224B1A4616491748FB
S315200054E0FFF7ACFA164B1B68002B13D17B681A69A1
S315200054F07B2300931C4B00210020FFF701FA09E0D3
